:100000000C942A000C943C000C943C000C943C0092
:100010000C943C000C943C000C943C000C943C0070
:100020000C943C000C943C000C943C000C943C0060
:100030000C943C000C943C000C943C000C943C0050
:100040000C943C000C943C000C943C000C943C0040
:100050000C943C0011241FBECFE5D8E0DEBFCDBF1D
:1000600020E0A0E6B0E001C01D92A236B207E1F7A1
:100070000E942A010C9487020C94000060E081E445
:100080000E941E0162E081E40E941E0164E081E49E
:100090000E941E0166E081E40E941E0164E083E488
:1000A0000E94170160E081E40E94260162E081E481
:1000B0000E94260164E081E40E94260166E081E45A
:1000C0000E942601089541E650E064E083E40E9426
:1000D0001B018FE493EC0197F1F700C000008091C1
:1000E0006100813051F4809160008F5F80936000E7
:1000F000893019F481E08093600080916000813044
:1001000089F460E081E40E94220162E081E40E94BF
:10011000260164E081E40E94260166E081E40E94F9
:1001200026010895823089F460E081E40E94220172
:1001300062E081E40E94220164E081E40E942601E1
:1001400066E081E40E9426010895833089F460E02E
:1001500081E40E94220162E081E40E94220164E0C5
:1001600081E40E94220166E081E40E942601089554
:10017000843089F460E081E40E94220162E081E43D
:100180000E94220164E081E40E94220166E081E491
:100190000E9422010895853089F460E081E40E9484
:1001A000260162E081E40E94220164E081E40E9471
:1001B000220166E081E40E9422010895863089F4DC
:1001C00060E081E40E94260162E081E40E94260151
:1001D00064E081E40E94220166E081E40E94220141
:1001E0000895873089F460E081E40E94260162E08E
:1001F00081E40E94260164E081E40E94260166E019
:1002000081E40E9422010895883081F460E081E455
:100210000E94260162E081E40E94260164E081E4FC
:100220000E94260166E081E40E942601089540E0D4
:100230000E942F0108950E942302089541E00E9428
:100240002F01089541E00E94A901089540E00E9415
:10025000A90108950E943E000E946300FDCF8234F0
:1002600031F118F4813439F008958334E1F18434A4
:1002700009F454C0089541110CC02AB381E090E004
:1002800002C0880F991F6A95E2F7809582238ABB86
:100290000895413009F05CC02AB381E090E002C0CB
:1002A000880F991F6A95E2F7822B8ABB0895411146
:1002B0000CC027B381E090E002C0880F991F6A95B7
:1002C000E2F78095822387BB0895413009F040C052
:1002D00027B381E090E002C0880F991F6A95E2F78A
:1002E000822B87BB089541110CC024B381E090E0BC
:1002F00002C0880F991F6A95E2F78095822384BB1C
:100300000895413029F524B381E090E002C0880FC0
:10031000991F6A95E2F7822B84BB089541110CC0A6
:1003200021B381E090E002C0880F991F6A95E2F73F
:100330008095822381BB0895413051F421B381E03F
:1003400090E002C0880F991F6A95E2F7822B81BB6B
:100350000895823431F118F4813439F008958334EA
:10036000E1F1843409F454C0089541110CC02BB359
:1003700081E090E002C0880F991F6A95E2F78095AE
:1003800082238BBB0895413009F05CC02BB381E020
:1003900090E002C0880F991F6A95E2F7822B8BBB11
:1003A000089541110CC028B381E090E002C0880F8D
:1003B000991F6A95E2F78095822388BB08954130A2
:1003C00009F040C028B381E090E002C0880F991F77
:1003D0006A95E2F7822B88BB089541110CC025B3C2
:1003E00081E090E002C0880F991F6A95E2F780953E
:1003F000822385BB0895413029F525B381E090E043
:1004000002C0880F991F6A95E2F7822B85BB089579
:1004100041110CC022B381E090E002C0880F991F07
:100420006A95E2F78095822382BB0895413051F4AA
:1004300022B381E090E002C0880F991F6A95E2F72D
:10044000822B82BB0895823401F118F4813439F093
:100450000895833481F1843409F443C0089579B355
:1004600081E090E09C01062E02C0220F331F0A9407
:10047000E2F7872F90E08223932302C0959587951A
:100480006A95E2F7FA018083089576B381E090E0FF
:100490009C01062E02C0220F331F0A94E2F7872F19
:1004A00090E08223932302C0959587956A95E2F7A1
:1004B000FA018083089573B381E090E09C01062ED9
:1004C00002C0220F331F0A94E2F7872F90E08223A5
:1004D000932302C0959587956A95E2F7FA01808388
:1004E000089570B381E090E09C01062E02C0220FB7
:1004F000331F0A94E2F7872F90E08223932302C0F0
:10050000959587956A95E2F7FA0180830895F894A6
:02051000FFCF1B
:00000001FF
