:100000000C942A000C942C010C943C000C943C00A1
:100010000C943C000C943C000C943C000C943C0070
:100020000C943C000C943C000C943C000C943C0060
:100030000C943C000C943C000C943C000C943C0050
:100040000C943C000C943C000C943C000C943C0040
:100050000C943C0011241FBECFE5D8E0DEBFCDBF1D
:1000600020E0A0E6B0E001C01D92A236B207E1F7A1
:100070000E9450010C9408030C94000060E081E49D
:100080000E94440162E081E40E94440164E081E452
:100090000E94440166E081E40E94440162E084E43D
:1000A0000E943D0160E081E40E944C0162E081E435
:1000B0000E944C0164E081E40E944C0166E081E40E
:1000C0000E944C01789460E186E00E94AF0208959E
:1000D00040E650E062E084E40E94410180916100CA
:1000E0008130A9F490916000913089F460E081E45E
:1000F0000E94480162E081E40E944C0164E081E4D6
:100100000E944C0166E081E40E944C01E1CF823004
:10011000A9F490916000913089F460E081E40E943C
:10012000480162E081E40E94480164E081E40E94A9
:100130004C0166E081E40E944C01CACF8330A9F4EF
:1001400090916000913089F460E081E40E94480160
:1001500062E081E40E94480164E081E40E94480179
:1001600066E081E40E944C01B3CF8430A9F4909101
:100170006000913089F460E081E40E94480162E00F
:1001800081E40E94480164E081E40E94480166E045
:1001900081E40E9448019CCF8530A9F490916000D1
:1001A000913089F460E081E40E944C0162E081E4D6
:1001B0000E94480164E081E40E94480166E081E415
:1001C0000E94480185CF8630A9F49091600091305B
:1001D00089F460E081E40E944C0162E081E40E94C5
:1001E0004C0164E081E40E94480166E081E40E94E1
:1001F00048016ECF8730A9F490916000913089F466
:1002000060E081E40E944C0162E081E40E944C01C4
:1002100064E081E40E944C0166E081E40E944801B0
:1002200057CF883009F054CF80916000813009F0B9
:100230004FCF60E081E40E944C0162E081E40E94C3
:100240004C0164E081E40E944C0166E081E40E947C
:100250004C01109261003CCF1F920F920FB60F928B
:1002600011248F93809161008F5F809361008F9143
:100270000F900FBE0F901F90189540E00E945701FD
:1002800008950E944B02089541E00E94570108958D
:1002900041E00E94D101089540E00E94D1010895FB
:1002A0000E943E000E94680080E090E00895823441
:1002B00031F118F4813439F008958334E1F1843454
:1002C00009F454C0089541110CC02AB381E090E0B4
:1002D00002C0880F991F6A95E2F7809582238ABB36
:1002E0000895413009F05CC02AB381E090E002C07B
:1002F000880F991F6A95E2F7822B8ABB08954111F6
:100300000CC027B381E090E002C0880F991F6A9566
:10031000E2F78095822387BB0895413009F040C001
:1003200027B381E090E002C0880F991F6A95E2F739
:10033000822B87BB089541110CC024B381E090E06B
:1003400002C0880F991F6A95E2F78095822384BBCB
:100350000895413029F524B381E090E002C0880F70
:10036000991F6A95E2F7822B84BB089541110CC056
:1003700021B381E090E002C0880F991F6A95E2F7EF
:100380008095822381BB0895413051F421B381E0EF
:1003900090E002C0880F991F6A95E2F7822B81BB1B
:1003A0000895823431F118F4813439F0089583349A
:1003B000E1F1843409F454C0089541110CC02BB309
:1003C00081E090E002C0880F991F6A95E2F780955E
:1003D00082238BBB0895413009F05CC02BB381E0D0
:1003E00090E002C0880F991F6A95E2F7822B8BBBC1
:1003F000089541110CC028B381E090E002C0880F3D
:10040000991F6A95E2F78095822388BB0895413051
:1004100009F040C028B381E090E002C0880F991F26
:100420006A95E2F7822B88BB089541110CC025B371
:1004300081E090E002C0880F991F6A95E2F78095ED
:10044000822385BB0895413029F525B381E090E0F2
:1004500002C0880F991F6A95E2F7822B85BB089529
:1004600041110CC022B381E090E002C0880F991FB7
:100470006A95E2F78095822382BB0895413051F45A
:1004800022B381E090E002C0880F991F6A95E2F7DD
:10049000822B82BB0895823401F118F4813439F043
:1004A0000895833481F1843409F443C0089579B305
:1004B00081E090E09C01062E02C0220F331F0A94B7
:1004C000E2F7872F90E08223932302C095958795CA
:1004D0006A95E2F7FA018083089576B381E090E0AF
:1004E0009C01062E02C0220F331F0A94E2F7872FC9
:1004F00090E08223932302C0959587956A95E2F751
:10050000FA018083089573B381E090E09C01062E88
:1005100002C0220F331F0A94E2F7872F90E0822354
:10052000932302C0959587956A95E2F7FA01808337
:10053000089570B381E090E09C01062E02C0220F66
:10054000331F0A94E2F7872F90E08223932302C09F
:10055000959587956A95E2F7FA0180830895CF9380
:10056000DF939BB721E030E0082E02C0220F331F3B
:100570000A94E2F7292B2BBF863031F08730D1F077
:10058000853009F042C034C085B78E7F85BF85B7FE
:100590008D7F85BF85B7962F9170892B85BF85B7D5
:1005A00066956170C62F90E0D92FCC0FDD1FC82B48
:1005B000C5BF2BC085B78B7F85BF85B7877F85BFBC
:1005C00085B7A62FA170B0E0AA0FBB1FAA0FBB1F53
:1005D000A82BA5BF85B761FBEE27E0F9F0E0EE0F91
:1005E000FF1FEE0FFF1FEE0FFF1FE82BE5BF0DC033
:1005F00085B78F7B85BF85B7462F417050E0440F8C
:10060000551F440F551F482B45BFDF91CF910895CB
:04061000F894FFCF8C
:00000001FF
