:100000000C942A000C94F5040C940A050C943C0002
:100010000C943C000C943C000C943C000C943C0070
:100020000C943C000C943C000C943C000C943C0060
:100030000C943C000C943C000C943C000C943C0050
:100040000C943C000C943C000C943C000C943C0040
:100050000C943C0011241FBECFE5D8E0DEBFCDBF1D
:1000600020E0A0E6B0E001C01D92A436B207E1F79F
:100070000E9433050C9459080C94000060E081E460
:100080000E94270562E081E40E94270564E081E484
:100090000E94270566E081E40E94270562E084E46F
:1000A0000E941F0563E084E40E94230560E081E470
:1000B0000E942F0562E081E40E942F0564E081E444
:1000C0000E942F0566E081E40E942F05789461E18B
:1000D00086E00E94260661E187E00E9426060E94D3
:1000E000A206089510926100109260008091600055
:1000F0008111E3C080916100811111C060E081E451
:100100000E942F0562E081E40E942F0564E081E4F3
:100110000E942F0566E081E40E942F05E7CF813021
:1001200089F460E081E40E942B0584E690E00E945F
:10013000FD0660E081E40E942F0584E893E00E94C0
:10014000FD06D4CF8230C9F460E081E40E942B0523
:1001500062E081E40E942B0584E690E00E94FD06A7
:1001600060E081E40E942F0562E081E40E942F0597
:1001700084E893E00E94FD06B9CF833009F560E082
:1001800081E40E942B0562E081E40E942B0564E07B
:1001900081E40E942B0584E690E00E94FD0660E069
:1001A00081E40E942F0562E081E40E942F0564E053
:1001B00081E40E942F0584E893E00E94FD0696CF1B
:1001C000843049F560E081E40E942B0562E081E41F
:1001D0000E942B0564E081E40E942B0566E081E427
:1001E0000E942B0584E690E00E94FD0660E081E419
:1001F0000E942F0562E081E40E942F0564E081E403
:100200000E942F0566E081E40E942F0584E893E0B8
:100210000E94FD066BCF853009F562E081E40E9403
:100220002B0564E081E40E942B0566E081E40E94D6
:100230002B0584E690E00E94FD0662E081E40E94C6
:100240002F0564E081E40E942F0566E081E40E94AE
:100250002F0584E893E00E94FD0648CF8630C9F45C
:1002600064E081E40E942B0566E081E40E942B0596
:1002700084E690E00E94FD0664E081E40E942F0580
:1002800066E081E40E942F0584E893E00E94FD0669
:100290002DCF873009F02ACF66E081E40E942B053C
:1002A00084E690E00E94FD0666E081E40E942F054E
:1002B00084E893E00E94FD0619CF813009F0E3C085
:1002C00080916100811111C060E081E40E942F05DE
:1002D00062E081E40E942F0564E081E40E942F0522
:1002E00066E081E40E942F0501CF813089F460E04F
:1002F00081E40E942B0588EC90E00E94FD0660E0FE
:1003000081E40E942F0580E293E00E94FD06EECE7C
:100310008230C9F460E081E40E942B0562E081E450
:100320000E942B0588EC90E00E94FD0660E081E4CD
:100330000E942F0562E081E40E942F0580E293E095
:100340000E94FD06D3CE833009F560E081E40E946F
:100350002B0562E081E40E942B0564E081E40E94A9
:100360002B0588EC90E00E94FD0660E081E40E948D
:100370002F0562E081E40E942F0564E081E40E9481
:100380002F0580E293E00E94FD06B0CE843049F54F
:1003900060E081E40E942B0562E081E40E942B056D
:1003A00064E081E40E942B0566E081E40E942B0555
:1003B00088EC90E00E94FD0660E081E40E942F0539
:1003C00062E081E40E942F0564E081E40E942F0531
:1003D00066E081E40E942F0580E293E00E94FD0622
:1003E00085CE853009F562E081E40E942B0564E04A
:1003F00081E40E942B0566E081E40E942B0588ECD5
:1004000090E00E94FD0662E081E40E942F0564E016
:1004100081E40E942F0566E081E40E942F0580E2BE
:1004200093E00E94FD0662CE8630C9F464E081E468
:100430000E942B0566E081E40E942B0588EC90E089
:100440000E94FD0664E081E40E942F0566E081E4DD
:100450000E942F0580E293E00E94FD0647CE873080
:1004600009F044CE66E081E40E942B0588EC90E020
:100470000E94FD0666E081E40E942F0580E293E081
:100480000E94FD0633CE823009F0E3C08091610006
:10049000811111C060E081E40E942F0562E081E4D7
:1004A0000E942F0564E081E40E942F0566E081E44C
:1004B0000E942F051BCE813089F460E081E40E9408
:1004C0002B058CE291E00E94FD0660E081E40E9431
:1004D0002F058CEB92E00E94FD0608CE8230C9F415
:1004E00060E081E40E942B0562E081E40E942B051C
:1004F0008CE291E00E94FD0660E081E40E942F05FD
:1005000062E081E40E942F058CEB92E00E94FD06E0
:10051000EDCD833009F560E081E40E942B0562E0B7
:1005200081E40E942B0564E081E40E942B058CE2AB
:1005300091E00E94FD0660E081E40E942F0562E0E8
:1005400081E40E942F0564E081E40E942F058CEB7A
:1005500092E00E94FD06CACD843049F560E081E456
:100560000E942B0562E081E40E942B0564E081E497
:100570000E942B0566E081E40E942B058CE291E04D
:100580000E94FD0660E081E40E942F0562E081E4A4
:100590000E942F0564E081E40E942F0566E081E45B
:1005A0000E942F058CEB92E00E94FD069FCD8530C6
:1005B00009F562E081E40E942B0564E081E40E9479
:1005C0002B0566E081E40E942B058CE291E00E94FD
:1005D000FD0662E081E40E942F0564E081E40E9450
:1005E0002F0566E081E40E942F058CEB92E00E94CB
:1005F000FD067CCD8630C9F464E081E40E942B05C1
:1006000066E081E40E942B058CE291E00E94FD06E9
:1006100064E081E40E942F0566E081E40E942F05DA
:100620008CEB92E00E94FD0661CD873009F05ECD33
:1006300066E081E40E942B058CE291E00E94FD06B9
:1006400066E081E40E942F058CEB92E00E94FD069B
:100650004DCD833009F0E3C080916100811111C05C
:1006600060E081E40E942F0562E081E40E942F0592
:1006700064E081E40E942F0566E081E40E942F057A
:1006800035CD813089F460E081E40E942B0584EF50
:1006900091E00E94FD0660E081E40E942F0584EF56
:1006A00091E00E94FD0622CD8230C9F460E081E431
:1006B0000E942B0562E081E40E942B0584EF91E00B
:1006C0000E94FD0660E081E40E942F0562E081E463
:1006D0000E942F0584EF91E00E94FD0607CD833034
:1006E00009F560E081E40E942B0562E081E40E944C
:1006F0002B0564E081E40E942B0584EF91E00E94C9
:10070000FD0660E081E40E942F0562E081E40E9422
:100710002F0564E081E40E942F0584EF91E00E94A0
:10072000FD06E4CC843049F560E081E40E942B05AD
:1007300062E081E40E942B0564E081E40E942B05C5
:1007400066E081E40E942B0584EF91E00E94FD06A3
:1007500060E081E40E942F0562E081E40E942F05A1
:1007600064E081E40E942F0566E081E40E942F0589
:1007700084EF91E00E94FD06B9CC853009F562E076
:1007800081E40E942B0564E081E40E942B0566E071
:1007900081E40E942B0584EF91E00E94FD0662E057
:1007A00081E40E942F0564E081E40E942F0566E049
:1007B00081E40E942F0584EF91E00E94FD0696CC13
:1007C0008630C9F464E081E40E942B0566E081E490
:1007D0000E942B0584EF91E00E94FD0664E081E415
:1007E0000E942F0566E081E40E942F0584EF91E0CE
:1007F0000E94FD067BCC873009F078CC66E081E46E
:100800000E942B0584EF91E00E94FD0666E081E4E2
:100810000E942F0584EF91E00E94FD0667CC843092
:1008200009F064CC80916100811111C060E081E425
:100830000E942F0562E081E40E942F0564E081E4BC
:100840000E942F0566E081E40E942F054FCC813085
:1008500089F460E081E40E942B0580E293E00E942D
:10086000FD0660E081E40E942F0588EC90E00E9484
:10087000FD063CCC8230C9F460E081E40E942B0587
:1008800062E081E40E942B0580E293E00E94FD0675
:1008900060E081E40E942F0562E081E40E942F0560
:1008A00088EC90E00E94FD0621CC833009F560E0E1
:1008B00081E40E942B0562E081E40E942B0564E044
:1008C00081E40E942B0580E293E00E94FD0660E037
:1008D00081E40E942F0562E081E40E942F0564E01C
:1008E00081E40E942F0588EC90E00E94FD06FECB7B
:1008F000843049F560E081E40E942B0562E081E4E8
:100900000E942B0564E081E40E942B0566E081E4EF
:100910000E942B0580E293E00E94FD0660E081E4E6
:100920000E942F0562E081E40E942F0564E081E4CB
:100930000E942F0566E081E40E942F0588EC90E07C
:100940000E94FD06D3CB853009F562E081E40E9468
:100950002B0564E081E40E942B0566E081E40E949F
:100960002B0580E293E00E94FD0662E081E40E9494
:100970002F0564E081E40E942F0566E081E40E9477
:100980002F0588EC90E00E94FD06B0CB8630C9F4BC
:1009900064E081E40E942B0566E081E40E942B055F
:1009A00080E293E00E94FD0664E081E40E942F054E
:1009B00066E081E40E942F0588EC90E00E94FD062D
:1009C00095CB873009F092CB66E081E40E942B053D
:1009D00080E293E00E94FD0666E081E40E942F051C
:1009E00088EC90E00E94FD0681CB1F920F920FB61B
:1009F0000F9211248F93809161008F5F809361002B
:100A0000883011F4109261008F910F900FBE0F90FB
:100A10001F9018951F920F920FB60F9211248F936B
:100A2000809160008F5F80936000853011F4109298
:100A300060008F910F900FBE0F901F90189540E0AF
:100A40000E943A05089540E00E943A05089541E069
:100A50000E943A05089541E00E94B005089540E0E3
:100A60000E94B00508950E943E000E94720080E03E
:100A700090E008958134E1F441110CC02AB381E083
:100A800090E002C0880F991F6A95E2F78095822353
:100A90008ABB0895413009F062C02AB381E090E03A
:100AA00002C0880F991F6A95E2F7822B8ABB0895CE
:100AB0008234E1F441110CC027B381E090E002C020
:100AC000880F991F6A95E2F78095822387BB089566
:100AD000413009F044C027B381E090E002C0880FA4
:100AE000991F6A95E2F7822B87BB08958334D9F466
:100AF00041110CC024B381E090E002C0880F991F1F
:100B00006A95E2F78095822384BB0895413039F5D8
:100B100024B381E090E002C0880F991F6A95E2F744
:100B2000822B84BB08958434D1F441110CC021B3CD
:100B300081E090E002C0880F991F6A95E2F78095E6
:100B4000822381BB0895413051F421B381E090E0CC
:100B500002C0880F991F6A95E2F7822B81BB089526
:100B60008134E1F441110CC02BB381E090E002C06C
:100B7000880F991F6A95E2F7809582238BBB0895B1
:100B8000413009F062C02BB381E090E002C0880FD1
:100B9000991F6A95E2F7822B8BBB08958234E1F4AA
:100BA00041110CC028B381E090E002C0880F991F6A
:100BB0006A95E2F78095822388BB0895413009F059
:100BC00044C028B381E090E002C0880F991F6A9565
:100BD000E2F7822B88BB08958334D9F441110CC00D
:100BE00025B381E090E002C0880F991F6A95E2F773
:100BF0008095822385BB0895413039F525B381E086
:100C000090E002C0880F991F6A95E2F7822B85BB9E
:100C100008958434D1F441110CC022B381E090E0F6
:100C200002C0880F991F6A95E2F78095822382BBE4
:100C30000895413051F422B381E090E002C0880F62
:100C4000991F6A95E2F7822B82BB08959FB790683F
:100C50009FBF863031F59BB790649BBF613139F4FB
:100C600095B7916095BF95B7926095BF1AC06031F6
:100C700039F495B7926095BF95B79E7F95BF11C027
:100C8000611107C095B79E7F95BF95B79D7F95BFB2
:100C900008C0613031F495B7916095BF95B79D7FDD
:100CA00095BF873031F59BB790689BBF613139F4B0
:100CB00095B7916095BF95B7926095BF1AC06031A6
:100CC00039F495B7926095BF95B79E7F95BF11C0D7
:100CD000611107C095B79E7F95BF95B79D7F95BF62
:100CE00008C0613031F495B7916095BF95B79D7F8D
:100CF00095BF853031F58BB780628BBF613139F498
:100D000085B7816085BF85B7826085BF08956031F2
:100D100039F485B7826085BF85B78E7F85BF08951A
:100D2000611107C085B78E7F85BF85B78D7F85BF71
:100D30000895613031F485B7816085BF85B78D7FB7
:100D400085BF089583B7806183BF83B78F7D83BFDD
:100D500083B78F7B83BF83B7877F83BF0895009757
:100D600051F483B78E7F83BF83B78D7F83BF83B7F3
:100D70008B7F83BF08958130910551F483B78160E3
:100D800083BF83B78D7F83BF83B78B7F83BF089576
:100D90008830910551F483B78E7F83BF83B782601B
:100DA00083BF83B78B7F83BF08958034910551F44F
:100DB00083B7816083BF83B7826083BF83B78B7F34
:100DC00083BF0895811521E0920751F483B78E7F88
:100DD00083BF83B78D7F83BF83B7846083BF08954C
:100DE0008115944049F483B7816083BF83B78D7FB9
:100DF00083BF83B7846083BF0895BC0180E090E027
:100E00000E94CB072FE632E143E85EE30E942A0707
:100E10000E949C07709363006093620012BE81E0A1
:100E200090E00E94AF0620E030E008C008B600FE67
:100E3000FDCF88B7816088BF2F5F3F4F80916200F0
:100E4000909163002817390788F380E090E00E94B2
:100E5000AF0608950E943E070C941F080E941808D0
:100E600058F00E94110840F029F45F3F29F00C94DB
:100E7000080851110C9453080C940E080E94300875
:100E800068F39923B1F3552391F3951B550BBB27B9
:100E9000AA2762177307840738F09F5F5F4F220FFE
:100EA000331F441FAA1FA9F335D00E2E3AF0E0E8F5
:100EB00032D091505040E695001CCAF72BD0FE2F3F
:100EC00029D0660F771F881FBB1F261737074807D3
:100ED000AB07B0E809F0BB0B802DBF01FF2793588B
:100EE0005F4F3AF09E3F510578F00C9408080C943F
:100EF00053085F3FE4F3983ED4F386957795679562
:100F0000B795F7959F5FC9F7880F911D96958795BF
:100F100097F90895E1E0660F771F881FBB1F6217DE
:100F200073078407BA0720F0621B730B840BBA0B9C
:100F3000EE1F88F7E09508950E94380888F09F57C3
:100F400098F0B92F9927B751B0F0E1F0660F771FED
:100F5000881F991F1AF0BA95C9F714C0B13091F0E3
:100F60000E945208B1E008950C945208672F782F20
:100F70008827B85F39F0B93FCCF3869577956795A8
:100F8000B395D9F73EF490958095709561957F4F14
:100F90008F4F9F4F0895E89409C097FB3EF49095BA
:100FA0008095709561957F4F8F4F9F4F9923A9F042
:100FB000F92F96E9BB279395F695879577956795D1
:100FC000B795F111F8CFFAF4BB0F11F460FF1BC015
:100FD0006F5F7F4F8F4F9F4F16C0882311F096E9A8
:100FE00011C0772321F09EE8872F762F05C0662356
:100FF00071F096E8862F70E060E02AF09A95660F0F
:10100000771F881FDAF7880F9695879597F90895C7
:1010100097F99F6780E870E060E008959FEF80ECAB
:10102000089500240A94161617061806090608954E
:1010300000240A9412161306140605060895092EB4
:101040000394000C11F4882352F0BB0F40F4BF2B23
:1010500011F460FF04C06F5F7F4F8F4F9F4F089563
:1010600057FD9058440F551F59F05F3F71F0479559
:10107000880F97FB991F61F09F3F79F0879508953E
:10108000121613061406551FF2CF4695F1DF08C05D
:10109000161617061806991FF1CF8695710561057A
:1010A00008940895E894BB2766277727CB0197F922
:0610B0000895F894FFCF43
:00000001FF
